:020000040800F2
:100000005014002099010008CD100008C910000804
:10001000CB10000865020008FD1500080000000074
:1000200000000000000000000000000001010008C6
:1000300067020008000000004501000829130008BD
:10004000B3010008B3010008B3010008B3010008C0
:10005000B3010008B3010008B3010008B3010008B0
:10006000B3010008B3010008B3010008B3010008A0
:10007000B3010008B3010008B3010008B301000890
:10008000B3010008B3010008B3010008B301000880
:10009000B3010008B3010008B3010008B301000870
:1000A000B3010008A5130008B3010008B30100085C
:1000B000B3010008B3010008B3010008B301000850
:1000C000B3010008B3010008B3010008B301000840
:1000D000B3010008B3010008B3010008F1150008DE
:1000E000B3010008B3010008B3010008DFF80CD029
:1000F00000F0A6F8004800472D1800085014002012
:10010000224B19680868B0E8F00F80F30988BFF344
:100110006F8F4FF0000080F311884EF00D0E704786
:100120000000000006480068006880F3088862B696
:1001300061B6BFF34F8FBFF36F8F00DF00BF00BF0B
:1001400008ED00E0EFF30980BFF36F8F0F4B1A68E3
:1001500020E9F00F106008B54FF0500080F31188CF
:10016000BFF34F8FBFF36F8F02F002F84FF0000024
:1001700080F31188BDE8084019680868B0E8F00FFE
:1001800080F30988BFF36F8F704700BF2000002005
:10019000EFF3058070470000064880470648004797
:1001A000FEE7FEE7FEE7FEE7FEE7FEE7FEE7FEE727
:1001B000FEE7FEE7A1130008ED00000840EA010396
:1001C0009B0703D009E008C9121F08C0042AFAD20D
:1001D00003E011F8013B00F8013B521EF9D27047D1
:1001E000D2B201E000F8012B491EFBD27047002279
:1001F000F6E710B513460A4604461946FFF7F0FF26
:10020000204610BD421C10F8011B0029FBD1801AAA
:10021000704730B50B46014600202022012409E03A
:1002200021FA02F59D4205D303FA02F5491B04FAAF
:1002300002F52844151EA2F10102F1DC30BD0000D8
:10024000064C074D06E0E06840F0010394E8070023
:1002500098471034AC42F6D3FFF74CFF9C2B0008B4
:10026000BC2B0008FEE7704710B590F82110002461
:10027000022903D00421816301243DE001680A685A
:1002800022F00E020A6001680A6822F001020A6088
:100290001A4A0168914201D1012121E0174A143222
:1002A000914201D110211BE0144A2832914201D120
:1002B000891515E0114A3C32914201D189140FE0B1
:1002C0000E4A5032914202D14FF4803108E00B4A7D
:1002D0006432914202D14FF4801101E04FF08071FD
:1002E000064A083A5160012180F82110002180F867
:1002F0002010416B01B18847204610BD0800024024
:100300002DE9F84FDFF8B891002409F1040A0AF149
:10031000040B23460F270BF1040EC9E00125A5406D
:100320002A40AA427DD1674ED1F804C0ACEB060842
:10033000B44532D014DCBCF1030F3AD009DCBCF177
:10034000000F2AD0BCF1010F1CD0BCF1020F31D13B
:100350001DE0BCF1110F17D0BCF1120F2AD119E02A
:10036000B8F5881F19D006DCB8F5803F15D0B8F570
:10037000801F1FD111E0B8F5001F0ED0B8F5041F83
:1003800018D10AE0CB6815E0CB681B1D12E0CB68E2
:1003900008330FE0CB680C330CE08B682BB1012BDA
:1003A0004FF0080303D0456104E0042302E0056137
:1003B00000E00023FF2A01D8064601E000F1040610
:1003C0004FEA840501D9A5F12005D6F8008007FA87
:1003D00005FC28EA0C0803FA05F548EA0508C6F802
:1003E00000804D68ED0062D5374DAE6946F00106DC
:1003F000AE61AD6924F0030605F001050095334DAB
:1004000006EB050CDCF80850A607360F07FA06F8CD
:1004100025EA0805DFF8B880404503D14FF0000811
:1004200017E044E0DFF8AC80404502D14FF001080E
:100430000FE0DFF8A480404502D14FF0020808E049
:10044000DFF89880404502D14FF0030801E04FF0FB
:10045000040808FA06F848EA0508CCF808804D6850
:10046000D9F80060ED034D4601D5164300E09643F0
:100470002E604D68DAF80060AD03554601D516438D
:1004800000E096432E604D68DBF80060ED025D46AB
:1004900001D5164300E096432E604D68DEF80060FB
:1004A000AD02754601D5164300E096432E60641CEC
:1004B0000D682A46E5407FF431AFBDE8F88F0000B3
:1004C0000004014000001110001002400000014033
:1004D00000080140000C01400010014000140140E0
:1004E00001488068704700001000002002488168C1
:1004F000027811448160704710000020074810B551
:10050000016841F010010160032000F095F800201F
:1005100000F006F800F03EF8002010BD0020024078
:1005200000B5014687B00022192000F065F81920B7
:1005300000F054F81348816941F4006181618069D9
:1005400005A900F400600690684600F01DF900F06F
:100550004BF90D490D4AB0FBF1F10D48491E0260FF
:10056000416040F2E7320021C0E90321816000F0E0
:1005700013FB10B1012007B000BD054800F03AFBA5
:10058000F9E700000010024040420F00002C01403B
:10059000140300200F4808B5816941F00101816111
:1005A000816901F001010091C16941F08051C1618F
:1005B000C069002200F0805000900F21901E00F0D2
:1005C0001BF80548416821F0E06141F0007141608D
:1005D00008BD00000010024000000140002809DBB7
:1005E00000F01F02012191404009800000F1E0204D
:1005F000C0F8001170470000F0B40E4B1B680C46A9
:10060000C3F30223C3F10705042D00D90425191DE6
:10061000072901D2002300E0DB1E012606FA05F1BE
:10062000491E214099409E40761E16403143F0BC41
:1006300000F0FABF0CED00E0064900F00702086880
:100640004FF6FF03184040EA0220034A10430860B7
:10065000704700000CED00E00000FA052DE9F047BE
:100660000F46050061D0434E306800F00700B842E5
:1006700009D2306820F0070038433060306800F05D
:100680000700B84251D128683B4C810712D540077A
:1006900003D5606840F4E06060602878000703D507
:1006A000606840F4605060606068A96820F0F00005
:1006B000084360602878C00728D06868012810D0F7
:1006C0002168022810D0890700292EDA616821F0FC
:1006D000030101436160FFF703FF804641F288395F
:1006E0000DE021688903EFE78901EDE7FFF7F8FEE8
:1006F000A0EB0801494502D90320BDE8F0876068F6
:10070000696800F00C00B0EB810FEFD1306800F0A9
:100710000700B8420BD9306820F00700384330603A
:10072000306800F00700B84201D00120E5E72878E2
:10073000400705D56068E96820F4E0600843606020
:100740002878000706D56068296920F4605040EADF
:10075000C100606000F058F86168084AC1F30311F5
:10076000515CC8400649086006480068FFF7D8FE9B
:100770000020C2E70020024000100240842B000845
:100780001C000020140000200F2202600C4A536855
:1007900003F003034360536803F0F003836053687E
:1007A00003F4E063C36052684FF4E06303EAD202EB
:1007B00002610448006800F007000860704700000C
:1007C00000100240002002400448054900684968C2
:1007D000044AC1F30221515CC84070471C0000204C
:1007E00000100240942B000804480549006849683D
:1007F000044AC1F3C221515CC84070471C0000206C
:1008000000100240942B000812A185B00FC98DE89A
:100810000F0014A0144A006804905168134801F0B6
:100820000C03042B10D0082B0ED1C1F38343C90352
:100830001DF803000AD5516804AAC1F34041515C78
:100840000A4A5043B0FBF1F005B0704708494843ED
:10085000FAE7000002030405060708090A0B0C0D5D
:100860000E0F1010010200000010024000127A006A
:1008700000093D002DE9F84F040070D02078C04DEC
:10088000C00749D06868C0F38100012807D06868B4
:10089000C0F38100022809D16868C00306D5286822
:1008A000800339D560680028E7D035E06068B0F58E
:1008B000803F0BD010B1B0F5A02F11D0286820F4E4
:1008C00080302860286820F4802002E0286840F406
:1008D00080302860606890B1FFF702FE06460AE0AB
:1008E000286840F480202860F0E700BFFFF7F8FD9B
:1008F000801B642873D828688003F7D50CE0FFF7C5
:10090000EFFD064605E000BFFFF7EAFD801B642807
:10091000F0D828688003F7D420789A4E80074FF0EB
:1009200001094FF0000839D5686810F00C0F07D0A6
:100930006868C0F38100022809D16868C00306D442
:100940002868800714D52069012808D110E02069A3
:10095000B0B1C6F80090FFF7C3FD074605E00AE115
:10096000FFF7BEFDC01B0228C4D828688007F7D552
:100970002868616920F0F80040EAC10028600DE0B5
:10098000C6F80080FFF7ACFD074604E0FFF7A8FDBE
:10099000C01B022823D828688007F7D420780007D6
:1009A0002CD57948A169D9B1C0F80090FFF798FD1E
:1009B000074604E0FFF794FDC01B02280FD8686AC1
:1009C0008007F7D571484FF4FA510068B0FBF1F099
:1009D000009000BF0098411E0091FAD20EE080E026
:1009E000C0F80080FFF77CFD074604E0FFF778FDC4
:1009F000C01B022875D8686A8007F7D420784007A2
:100A000060D5E8690027C00008D4E86940F080504C
:100A1000E861E869012700F0805000905C480168B7
:100A2000C90513D40168834641F480710160FFF762
:100A300057FD824606E000BFFFF752FDA0EB0A001B
:100A400064284ED8DBF80000C005F5D5E068012821
:100A50000AD008B1052813D0286A20F001002862C6
:100A6000286A20F0040002E0286A40F001002862B1
:100A7000E06841F2883B98B1FFF732FD82460BE017
:100A8000286A40F004002862EEE700BFFFF728FD67
:100A9000A0EB0A0159455AD8286A8007F6D50CE020
:100AA000FFF71EFD824605E0FFF71AFDA0EB0A01E5
:100AB00059454CD8286A8007F6D41FB1E86920F060
:100AC0008050E861E06988B36968C1F38101022957
:100AD00044D00228C6F8608004D0FFF701FD044628
:100AE00038E034E0FFF7FCFC074604E0FFF7F8FCD1
:100AF000C01B02282BD828688001F7D4206AB0F5E3
:100B0000803F05D16868A16820F400300843686020
:100B1000D4E908010843696821F474110843686046
:100B2000C6F86090FFF7DCFC044606E025E000BF55
:100B3000FFF7D6FC001B022809D828688001F7D5EA
:100B40001BE000BFFFF7CCFC001B022802D90320EA
:100B5000BDE8F88F28688001F4D40EE00128F7D0B2
:100B60006868226A00F48031914204D1616A00F41D
:100B70007010884201D00120EAE70020E8E7000079
:100B80000010024000004242800442421C0000204B
:100B9000007000407047704710B5040003D094F80F
:100BA0003D0010B107E0012010BD002084F83C009A
:100BB000204600F01EF8022084F83D00211D206828
:100BC00000F0F6FB012084F8460084F83E0084F82B
:100BD0003F0084F8400084F8410084F8420084F823
:100BE000430084F8440084F8450084F83D00002068
:100BF00010BD704790F83D10012901D001207047C9
:100C0000022180F83D100168CA6842F00102CA6002
:100C100000680B49884208D0B0F1804F05D00949DF
:100C2000884202D00849884204D1816801F0070156
:100C3000062903D0016841F00101016000207047DE
:100C4000002C01400004004000080040704770B5CF
:100C50000446006801694FF00005C943890715D4AF
:100C6000C168C943890711D4E91E016101202077B9
:100C7000206880698007204602D0FFF7E7FF04E084
:100C800000F098F8204600F096F825772068016972
:100C9000C943490717D4C168C943490713D46FF042
:100CA00004010161022020772068806910F4407FF0
:100CB000204602D0FFF7CAFF04E000F07BF8204690
:100CC00000F079F8257720680169C943090716D42F
:100CD000C168C943090712D46FF0080101610420FB
:100CE00020772068C0698007204602D0FFF7AEFF5A
:100CF00004E000F05FF8204600F05DF825772068FA
:100D00000169C943C90617D4C168C943C90613D4C8
:100D10006FF010010161082020772068C06910F48D
:100D2000407F204602D0FFF791FF04E000F042F838
:100D3000204600F040F8257720680169C943C907BB
:100D400008D1C168C943C90704D1891E0161204681
:100D500000F032F820680169C943090609D4C16866
:100D6000C943090605D46FF0800101612046FFF7F1
:100D700011FF20680169C943490609D4C168C94304
:100D8000490605D46FF040010161204600F01EF8CD
:100D900020680169C94389060BD4C168C943890623
:100DA00007D46FF0200101612046BDE87040FFF7D5
:100DB000F2BE70BD7047704700680349884201D198
:100DC000FFF794BB70470000002C0140704770474C
:100DD00070B5026804461068D168536910F00F0FAF
:100DE00052D003F0010501F490762E435FD0C20784
:100DF00005D0CA0503D5E26B42F00102E263420767
:100E000005D5DA0703D0E26B42F00202E263820703
:100E100005D5DA0703D0E26B42F00402E263020771
:100E200007D501F020022A4303D0E26B42F008020A
:100E3000E263E26B002A33D0800604D5880602D52F
:100E4000204600F001FB20684069E16BC0F3801090
:100E5000090700D428B3204600F0E8FA2068416969
:100E600049061AD5416921F040014161606BA0B18A
:100E70002D494163606BFFF7F7F9002810D0606BD4
:100E8000416BBDE870400847830610D58B060ED530
:100E90002046BDE8704000F0D7BA2046FFF797FF24
:100EA00070BD2046FFF793FF0020E06370BD03068E
:100EB0002BD50B0629D594F839002128F6D1A06846
:100EC000B0F5805F01D12069B0B1206A411C216278
:100ED000216800784860E08C401E0004000CE0842B
:100EE000E4D12068C16821F08001C1602068C16838
:100EF00041F04001C16070BD206A0088C0F3080065
:100F00005060206A801C2062E5E74006F3D5480661
:100F1000F1D5D168204621F04001D160202184F82C
:100F2000391000F0D0F870BD1D14000870B5040031
:100F300004D094F83900002510B106E0012070BDFE
:100F400084F83850204600F023F8242084F8390033
:100F50002068C16821F40051C160204600F0BAFA4F
:100F60002068016921F4904101612068416921F004
:100F70002A0141612068C16841F40051C160E56304
:100F8000202084F8390084F83A00002070BD000069
:100F900030B585B000240094019402940394006855
:100FA000184988422CD11848C16941F48021C16197
:100FB000C16901F480210491816941F008018161D6
:100FC0008069124D00F0080004904FF4806000909A
:100FD000022001900320039069462846FFF790F90C
:100FE000E814CDE90004694628460294FFF788F921
:100FF000002205212720FFF7FFFA2720FFF7EEFA4E
:1010000005B030BD0048004000100240000C014017
:10101000704700002DE9F843044690F839001F4658
:1010200016460D4620284CD1C5B1BEB194F8380003
:10103000012846D0012084F838004FF00008C4F899
:101040003C80212084F83900FFF74AFAA6848146C3
:10105000E684A068B0F5805F03D004E00120BDE81D
:10106000F883206928B12E465FF0000584F83880A7
:101070000EE00026FAE78021204600F087FAA0B9AA
:10108000AEB116F8010B21684860E08C401EE08488
:10109000E08C4B464FF0000200970028EBD14FF058
:1010A0004001204600F072FA30B10320D7E735F84E
:1010B000020BC0F30800E6E7202084F83900002086
:1010C000CDE70220CBE77047FEE7FEE77047000060
:1010D000A8B0294F4FF0FF354FF47A78182000F070
:1010E0007BFE04463422254901A8FFF767F801A8D2
:1010F000FFF788F882B22B4601A92148FFF78AFF43
:101100002A462146F86801F0CDF9012814D01422AE
:101110001CA10EA8FFF752F80EA8FFF773F882B2D1
:101120002B460EA91648FFF775FF204600F056FF24
:10113000404600F093FFD1E71049642234310EA8F5
:10114000FFF73CF8642000F047FE06462068009058
:10115000238911A13046626800F052FA3046FFF749
:1011600051F882B22B4631460548FFF753FF30460F
:1011700000F034FFD9E7000000000020EC2A00084E
:10118000800000204C6F69206B6869206E68616E7A
:101190002071756575650D004E68616E207475204F
:1011A00051756575653A0D434F554E544552203D76
:1011B0002025640D4C415247452056414C55452051
:1011C0003D2025750D535452494E47203D2025732F
:1011D0000D0D0D00214C9AB04FF0FF364FF47A7789
:1011E0000C2000F0F9FD054634221D496846FEF743
:1011F000E5FF6846FFF706F882B2334669461948AC
:10120000FFF708FF2188696001EB4100288116A0E3
:101210002860002332462946E06801F093F801284F
:101220004FF0340217D00E4968310DA8FEF7C6FF03
:101230000DA8FEF7E7FF82B233460DA90948FFF774
:10124000E9FE2088801C2080284600F0C7FE384632
:1012500000F004FFC4E702493431E6E70000002053
:10126000B4290008800000204455204C49455520F1
:101270005455205441534B2031000000224C9AB069
:101280004FF6FF774FF0FF364FF47A780C2000F0DE
:10129000A3FD054634221D496846FEF78FFF6846C8
:1012A000FEF7B0FF82B2334669461948FFF7B2FE37
:1012B0006188696007EA4100288116A02860002340
:1012C00032462946E06801F03DF801284FF034022B
:1012D00017D00E4968310DA8FEF770FF0DA8FEF774
:1012E00091FF82B233460DA90948FFF793FE60884B
:1012F000801C6080284600F071FE404600F0AEFE83
:10130000C4E702493431E6E700000020502A000813
:10131000800000204455204C494555205455205408
:1013200041534B203200000010B5502080F311884B
:10133000BFF34F8FBFF36F8F01F0F0F918B104497D
:101340004FF080500860002080F3118810BD00002D
:1013500004ED00E030B58FB028216846FEF747FF66
:1013600014210AA8FEF743FF0224012004900094F0
:101370001020059000254FF46010CDE90850079427
:101380006846FFF777FA0AA90F2081E8310060026A
:10139000CDE90D0502210AA8FFF760F90FB030BDB5
:1013A000704700000148FFF752BC00001403002002
:1013B000F0B50268164B174C174D4FF08047984216
:1013C00005D0B84203D0A04201D0A84203D122F0F8
:1013D00070064A683243984205D0B84203D0A04212
:1013E00001D0A84203D122F44074CA6822434C6958
:1013F00022F08002224302608A68C2620A68826226
:10140000984201D10969016301214161F0BD0000E9
:10141000002C0140000400400008004010B5406A64
:101420000021C185C184FFF7D2FC10BD0168CA68E4
:1014300022F49072CA6001684A6922F001024A618E
:10144000202180F83A10704710B590F83A10222900
:1014500001D0022010BD82684FF480539A4201D11E
:10146000016921B1816A9A421BD04AB10AE002683F
:10147000816A5268C2F308020A80816A891C08E006
:10148000026972B10268526802F07F020A70816AD2
:10149000491C8162C18D491E0904090CC18503D014
:1014A00016E002685268F1E70168CA6822F020027B
:1014B000CA600168CA6822F48072CA6001684A6919
:1014C00022F001024A61202180F83A10FFF7A0FDC6
:1014D000002010BD70B5044600680169E26821F47F
:1014E0004051114301612169A068084361690843C3
:1014F0002168CA6841F20C639A430243CA602068BB
:101500004169A26921F44071114341611E4920687B
:10151000884202D1FFF768F901E0FFF755F900EBC7
:10152000C00101EB0012606864218000B2FBF0F39F
:10153000B3FBF1F36FF018067343B2FBF0F5B2FBA7
:10154000F0F605EB8305322303EB0515B5FBF1F54A
:10155000B6FBF1F605F0F00505EB0615B2FBF0F66B
:10156000B2FBF0F0B0FBF1F06FF01802504306EB65
:10157000800003EB0010B0FBF1F0216800F00F00D9
:101580002844886070BD0000003801402DE9F0411A
:10159000984617460E460446069D1DE0681C1BD063
:1015A0002DB1FEF79DFFA0EB0800A84214D92068DA
:1015B000C16821F4D071C1602068416921F0010146
:1015C0004161202084F8390084F83A00002084F832
:1015D00038000320BDE8F0812068006836EA00008A
:1015E00004D00020B842D9D00020F3E70120F9E769
:1015F0000148FFF7EDBB000080000020FEE700007F
:101600000FB4084B10B504A902AA039800F02CF8F7
:10161000044602A9002000F003F9204610BC5DF842
:1016200014FB0000211800080907090E002804DB3C
:1016300000F1E02080F80014704700F00F0000F186
:10164000E02080F8141D704702E008C8121F08C18E
:10165000002AFAD170477047002001E001C1121F33
:10166000002AFBD1704700002DE9FF4F8BB09A464E
:101670000F460546002606E025280BD052460D9958
:1016800090476D1C761C28780028F5D10FB03046A5
:10169000BDE8F08F0024A0460122604900E0044329
:1016A00015F8013F203B02FA03F00842F7D12878F1
:1016B0002E2817D115F8010F44F004042A280ED063
:1016C0006FF02F022878A0F1300109290AD808EB21
:1016D000880102EB410100EB01086D1CF2E757F8AD
:1016E000048B6D1C287869283ED006DC0028CDD0FC
:1016F00063280BD0642804D136E0732810D07528F5
:101700004BD052460D999047761C85E017F8040B94
:101710008DF8000000208DF80100E946012003E06B
:1017200057F8049B4FF0FF3061074FF0000401D4DD
:101730000AE0641C44450DDA8442FADB19F804100F
:101740000029F6D106E0641C8442FCDB19F8041081
:101750000029F8D1264404E019F8010B52460D99EE
:101760009047641EF8D257E001CF4FF00A0B0028D3
:1017700002DA40422D2102E0210504D52B218DF80B
:101780002410012103E0E10705D02021F7E70DF146
:10179000200908910CE00021F9E701CF4FF00A0B76
:1017A000F9E75946FEF735FD01F1300209F8012D40
:1017B0000028F6D1ADEB090000F1200B600701D441
:1017C0004FF00108D84502DDA8EB0B0000E0002037
:1017D0008046002406E009A85246005D0D99904716
:1017E000641C761C08988442F5DB04E030205246E5
:1017F0000D999047761CB8F10001A8F10108F5DCBD
:1018000005E019F8010B52460D999047761CBBF183
:101810000001ABF1010BF4DC6D1C34E70928010079
:101820000A68531C0B601070704700007CB5FEF70F
:1018300065FEFFF78FFD2B48816941F0080181614A
:10184000816901F008010091816941F00401816121
:101850008069254900F004000090244800240160BC
:101860004FF41651C0E901140C21C460C0E90441D1
:101870008461C461FFF75AFB00220C21022000F0B2
:10188000F9FC1B4900284FF06403C8604FF01502B3
:1018900025D018A11548FFF7BDFB15490220091DE9
:1018A000CDE900010023802218A11C4800F0D0FEE1
:1018B0000F4D01200835CDE900050023802218A135
:1018C0001B4800F0C5FE002380221AA11E48CDE966
:1018D000004500F0BDFE00F00DFC00207CBD1BA10A
:1018E000D8E70000001002400048004080000020BF
:1018F0000000002054616F20517565756520746883
:10190000616E6820636F6E670D0D000053656E6435
:10191000657220485054205461736B00D511000843
:1019200053656E646572204D5054205461736B0092
:101930007D1200085265636569766572204C5054CB
:10194000205461736B000000D11000084B686F6E6B
:1019500067207468652074616F2051756575650D29
:101960000D0000002DE9F041184C0F460546666950
:101970002068001D00F0AEFA38B9206890F82C10ED
:1019800001208840A1698143A161681C07D137B15A
:101990002168BDE8F0410E48091D00F0DFBA20685B
:1019A0003544B5424560216805D2A068BDE8F041E4
:1019B000091D00F0BBBA6068091D00F0B7FA206B82
:1019C000854200D22563BDE8F081000020000020A0
:1019D000380400202DE9F041054600F0CBFA2E4CEA
:1019E0002069401C206120682C4F10B1E06940B391
:1019F0002DE025602069012829D1002606EB86000C
:101A000007EB800000F084FA761C072EF6D32348FB
:101A10008C3000F07DFA2148A03000F079FA1F48A0
:101A2000B43000F075FA1D48C83000F071FA1B4858
:101A3000DC3000F06DFA19488C3060601430A06022
:101A400005E02068E96AC06A884200D82560E06A3B
:101A5000401CE062E96A0120A26988401043A0614D
:101A600001EB810007EB8000291D00F077FA00F000
:101A7000A1FAE06900280CD02068E96AC06A8842AF
:101A800007D207494FF080500860BFF34F8FBFF374
:101A90006F8FBDE8F0810000200000205C03002073
:101AA00004ED00E030B4026C0B46002A0BD0C16894
:101AB0001144C1604468A14201D30168C16030BCD7
:101AC0001846FEF77BBB30BC70472DE9F041856BB3
:101AD000174604460026026C82B1C7B1E068FEF7E3
:101AE0006DFBE168206C091AE1602268914202D224
:101AF0006168081AE060022F16D017E02068A8B9C4
:101B0000606800F06FFE0646002060600EE0A0688E
:101B1000FEF754FB216CA0680844A060616888420D
:101B200004D32068A06001E005B16D1E6D1CA563A3
:101B30003046BDE8F08110B5044690F8510058B128
:101B400001280CD002280FD0502080F31188BFF359
:101B50004F8FBFF36F8FFEE7206B00F03FFA2046F8
:101B6000BDE8104000F03ABA10BD000010484FF434
:101B70004061420706D0C01D0D4920F00700411A00
:101B8000C1F540610B4A00230144C2E90003083952
:101B9000103A21F0070111604B600B600B1AC0E98D
:101BA000001393604FF000405360D0607047000016
:101BB0004C0400206C000020144E154CA6F1C80700
:101BC0004FF08058DFF84C9012E000BF00F0D2F9DF
:101BD000F068C568281D00F07DF92069401E20616D
:101BE000E068401EE06000F0E5F92846FFF7A3FF3B
:101BF000E0680028EAD138680128F9D9C9F80080DE
:101C0000BFF34F8FBFF36F8FF2E700002404002073
:101C10002000002004ED00E00346009829B1026096
:101C2000C0E90F31012100F049BB0060F8E72DE960
:101C3000F0479A46DDE9098481466FF00303206B83
:101C400003EB82021044089D20F00706700707D0BE
:101C5000502080F31188BFF34F8FBFF36F8FFEE7E3
:101C600023180A5C83F834200A5C12B1401C102847
:101C7000F6D3002784F84370072D00D30625E562CC
:101C8000C4E91157201D00F04EF904F1180000F0CE
:101C90004AF92461C5F107006462A061E76484F831
:101CA000507052464946304600F002F92060B8F1C3
:101CB000000F01D0C8F80040BDE8F08730B51149E9
:101CC00000E011460A688242FBD34B685C188442EC
:101CD00003D1406818444860084643681C18944281
:101CE00009D1084C103C2468A24209D052681A4419
:101CF00042600A6812680260814200D0086030BD0C
:101D00000460F9E76C00002010B5044600F032F9D9
:101D1000A06B28B15FF0000400F04CF9204610BD24
:101D20000124F9E706484168096829B14168C96892
:101D3000C9684968016370474FF0FF31FAE7000056
:101D40002000002008484068401C4FF0500080F3FD
:101D5000118804D0BFF34F8FBFF36F8FFEE7BFF33F
:101D60004F8FBFF36F8FFEE7740000202DE9F04125
:101D7000044600F0FFF894F9455004F1240609E008
:101D8000606A48B1304600F079FD08B100F094F97E
:101D90006D1E6DB2002DF3DC4FF0FF3684F8456008
:101DA00000F008F900F0E6F894F9445004F1100747
:101DB00009E0206948B1384600F060FD08B100F044
:101DC0007BF96D1E6DB2002DF3DC84F84460BDE834
:101DD000F04100F0EFB800002DE9F0410546002782
:101DE00000F0BEF9314E306808B9FFF7BFFEF06869
:101DF00005424BD1C5B3083568070ED005F0070082
:101E0000C0F108000544680707D0502080F311880E
:101E1000BFF34F8FBFF36F8FFEE72DB3706885421E
:101E200034D82248103001460C6801E020460C46A8
:101E30006168A94202D221680029F7D131688C4239
:101E400024D007682168016060680837411B1029A9
:101E50000FD96019420708D0502080F31188BFF3D2
:101E60004F8FBFF36F8FFEE710E041606560FFF7B3
:101E700025FF61687068401A7060B268904200D2B5
:101E8000B060F06801430020C4E9000100F030FDBB
:101E9000780707D0502080F31188BFF34F8FBFF32E
:101EA0006F8FFEE73846BDE8F08100005C0000203F
:101EB00010B5031F4FF080741C601B1F21F001013F
:101EC0001960191F024B0B60143940380A6010BDAD
:101ED000451D0008D0E9013201699A60D0E901236B
:101EE0005A604A68824201D182684A6000220261D7
:101EF0000868401E0860086870470000034B0360D4
:101F000003F154000860802010607047C00000207A
:101F100000F108014FF0FF32C0E90112C160016118
:101F200000210160704700210161704730B50B68E6
:101F30005A1C02D000F1080202E0026904E02246C5
:101F4000546825689D42FAD953684B6099608A604D
:101F5000516008610168491C016030BD42684A60F7
:101F600093688B6093685960916008610168491CAF
:101F700001607047502080F31188BFF34F8FBFF38B
:101F80006F8F0A494868401C486001280CD10848F6
:101F9000006810F0FF0F07D0502080F31188BFF3C6
:101FA0004F8FBFF36F8FFEE7704700007400002073
:101FB00004ED00E00849486828B1401E486001D19E
:101FC00080F311887047502080F31188BFF34F8F42
:101FD000BFF36F8FFEE700007400002070B500288B
:101FE00027D0144DA0F108046168E868014207D1C8
:101FF000502080F31188BFF34F8FBFF36F8FFEE740
:1020000022683AB1502080F31188BFF34F8FBFF39D
:102010006F8FFEE78143616000F0A2F86068696835
:10202000084468602046FFF749FEBDE8704000F0B4
:102030005FBC70BD5C0000204FF0E020002101611A
:10204000816105494FF47A720968B1FBF2F1491ECA
:1020500041610721016170471C00002010B502009A
:1020600014D00F48806B38B1502080F31188BFF333
:102070004F8FBFF36F8FFEE700F072F8002110461C
:10208000FFF770FC00F034FC002807D105494FF041
:1020900080500860BFF34F8FBFF36F8F10BD0000FB
:1020A0002000002004ED00E002498A6A02604969CC
:1020B00041607047200000200149012048627047BC
:1020C0002000002010B50C4650B1094909681831AC
:1020D000FFF72CFF2046BDE810400121FFF742BC6E
:1020E000502080F31188BFF34F8FBFF36F8FFEE74F
:1020F0002000002010B586B00024039405AA04A98E
:1021000003A80494FFF7FAFEDDE903010094CDE98A
:10211000011000230EA11048059A00F0C6FA0F49DD
:102120000028486311D0502080F31188BFF34F8FEF
:10213000BFF36F8F4FF0FF3008630120C8614C611F
:1021400006B0BDE8104000F041B806B010BD000078
:1021500049444C4500000000B91B00082000002045
:102160000248816B491C81637047000020000020F9
:102170001448816B11B10121416270470021416215
:102180008169B1FA81F1C1F11F0101EB81020E49B0
:1021900051F822306BB101EB820101F108034A686A
:1021A00052684A609A4201D152684A60D16801601F
:1021B0007047502080F31188BFF34F8FBFF36F8FAC
:1021C000FEE70000200000205C0300201CB526492B
:1021D00008780190FF20087008788DF800009DF8BD
:1021E00000009DF8002000F0F000904207D0502041
:1021F00080F31188BFF34F8FBFF36F8FFEE79DF819
:1022000000001A4B00F0500018700720986005E09D
:102210009DF8002052008DF80020401E9DF80020FF
:102220001206F5D49860032807D0502080F3118857
:10223000BFF34F8FBFF36F8FFEE74FF4407098608E
:10224000019808700A48016841F470010160016852
:1022500041F070410160FFF7EFFE00205860FDF78C
:1022600061FF00201CBD000000E400E074000020BD
:1022700020ED00E0F8B517460E46050014D0DEB19B
:1022800005FB06F04830FFF7A7FD04000AD0002048
:1022900084F8460004F148023B4631462846009443
:1022A000FFF7BAFC2046F8BD502080F31188BFF339
:1022B0004F8FBFF36F8FFEE70020E3E770B50D4649
:1022C000040025D0FFF756FED4E90F20216802FB59
:1022D000001161600021A1632168A1600A46D4E970
:1022E0000F01401E00FB0121E16021464FF0FF304D
:1022F00001F8440F487004F110008DB1FFF708FE9B
:1023000004F12400FFF704FEFFF754FE012070BD26
:10231000502080F31188BFF34F8FBFF36F8FFEE71C
:1023200021690029F0D000F0A9FA0028ECD0044976
:102330004FF080500860BFF34F8FBFF36F8FE3E71C
:1023400004ED00E02DE9FF4782B01D468A464FF0BC
:102350000008040003D0BAF1000F08D011E05020AB
:1023600080F31188BFF34F8FBFF36F8FFEE7206CB0
:1023700038B1502080F31188BFF34F8FBFF36F8FB8
:10238000FEE7022D0AD1E06B012807D0502080F330
:102390001188BFF34F8FBFF36F8FFEE700F0B0F9E6
:1023A0003F4F4FF000094FF0805648B9049838B1BC
:1023B000502080F31188BFF34F8FBFF36F8FFEE77C
:1023C000FFF7D8FDA06BE16B884207D3022D05D043
:1023D0000498D0B1B8F1000F1AD01EE02A46514639
:1023E0002046FFF772FB616A19B104F1240000F086
:1023F00045FA20B13E60BFF34F8FBFF36F8FFFF7F9
:10240000D9FD012006B0BDE8F087FFF7D3FD22E03B
:102410006846FFF749FE4FF00108FFF7CBFDFFF7D5
:102420009FFEFFF7A7FD94F94400401C01D184F8FA
:10243000449094F94500401C01D184F84590FFF781
:10244000B9FD04A9684600F0C9F830B12046FFF78D
:102450008DFC00F04DFA0020D4E7FFF78BFDA06B58
:10246000E16B884213D1FFF7A5FD04F11000049938
:10247000FFF728FE2046FFF779FC00F039FA002824
:102480009ED13E60BFF34F8FBFF36F8F98E7FFF78A
:1024900091FD2046FFF76AFC00F02AFA90E7000061
:1024A00004ED00E02DE9F747002683B08A460400DA
:1024B00003D0BAF1000F08D011E0502080F311884A
:1024C000BFF34F8FBFF36F8FFEE7206C38B1502002
:1024D00080F31188BFF34F8FBFF36F8FFEE700F0DB
:1024E0000FF9DFF8F4804FF000094FF0805748B93A
:1024F000059838B1502080F31188BFF34F8FBFF398
:102500006F8FFEE7FFF736FDA56BC5B1514620463C
:10251000FFF7C8FA6D1EA563206950B104F11000E1
:1025200000F0ACF928B1C8F80070BFF34F8FBFF3CB
:102530006F8FFFF73FFD012006B0BDE8F0870598DB
:1025400008B11EB106E0FFF735FD27E06846FFF74A
:10255000ABFD0126FFF72EFDFFF702FEFFF70AFD98
:1025600094F94400401C01D184F8449094F945004A
:10257000401C01D184F84590FFF71CFD05A9684671
:1025800000F02CF8002820460AD0FFF7EFFB00F0FF
:10259000AFF92046FFF7B8FB0028B3D00020CBE707
:1025A000FFF7B2FB90B104F124000599FFF78AFD13
:1025B0002046FFF7DBFB00F09BF90028A2D1C8F80A
:1025C0000070BFF34F8FBFF36F8F9BE72046FFF77D
:1025D000CDFB00F08DF995E704ED00E02DE9F04129
:1025E0000C46050011D0C4B1FFF7C4FC174B5A6963
:1025F0006E682068911B471C17D02F689B6A9F420A
:1026000019D0964217D8012410E0502080F3118889
:10261000BFF34F8FBFF36F8FFEE7502080F3118819
:10262000BFF34F8FBFF36F8FFEE70024FFF7C2FCAD
:102630002046BDE8F081884205D9401A206028462E
:10264000FFF732FDF1E700202060DCE720000020EA
:102650002DE9FF5F8346DDE90E87994616468A46D7
:102660009000FFF7B9FB05001CD05420FFF7B4FB26
:10267000040014D00020256384F85100CDE9024005
:10268000CDE900874B46324651465846FFF7CFFA10
:102690002046FFF79FF9012004B0BDE8F09F2846CF
:1026A000FFF79CFC4FF0FF30F6E7F0B585B0DDE9B1
:1026B0000B640A9DA6B1DCB154270097266302265D
:1026C00084F85160002604AFCDE90246CDE90057F9
:1026D000FFF7ADFA2046FFF77DF9049805B0F0BD8D
:1026E000502080F31188BFF34F8FBFF36F8FFEE749
:1026F000502080F31188BFF34F8FBFF36F8FFEE739
:102700000548C16919B1806B18B1002070470120DC
:102710007047022070470000200000202DE9F041A2
:102720002E4C0027A06B40B1206A401C2062606ADA
:1027300000B101273846BDE8F0816669761C666104
:1027400013D16068006838B1502080F31188BFF35E
:102750004F8FBFF36F8FFEE76068A1686160A06074
:10276000A06A401CA062FFF7DDFA206BDFF87080E2
:10277000864209D36068006880B16068C068C56837
:10278000686886420DD220632068C06A00EB800131
:1027900058F821000128CAD90127C8E74FF0FF30B7
:1027A000F1E7281DFFF796FBA86A18B105F118009C
:1027B000FFF790FBE86A0121A26981401143A16102
:1027C00000EB800108EB8100291DFFF7C7FBE86AD9
:1027D0002168C96A8842CDD30127CBE720000020B9
:1027E0005C03002070B504004FF0000140D0214D83
:1027F0002868844207D0502080F31188BFF34F8FA0
:10280000BFF36F8FFEE7A06C38B1401EA064636C0D
:10281000E26A9A422CD040B12AE0502080F311881D
:10282000BFF34F8FBFF36F8FFEE7201DFFF752FB03
:10283000114A012150B9E06A00EB800352F82330BD
:1028400023B9AB6901FA00F08343AB61606CE062CD
:10285000C0F10700A061E06AAB6981401943A9613A
:1028600000EB800002EB8000211DFFF777FB0121C8
:10287000084670BD200000205C0300202DE9F041D7
:10288000C068C468ACB104F118000746FFF722FB2A
:10289000154DA86B0126A0B139461448FFF75EFB21
:1028A000E06A2968C96A88421CD901206E62BDE8C5
:1028B000F081502080F31188BFF34F8FBFF36F8FEB
:1028C000FEE7201DFFF706FBE16AAA6906FA01F0A0
:1028D0001043A86101EB81000449B43901EB800089
:1028E000211DDBE70020E2E720000020100400208B
:1028F0002DE9F0472C4D00242746A86B38B1FFF78F
:1029000039FBA86B401EA863A86B40B146E050207D
:1029100080F31188BFF34F8FBFF36F8FFEE72969F4
:10292000224E0120D1B3A6F1B40980463068E8B147
:10293000F068C46804F11800FFF7CCFA201DFFF717
:10294000C9FAE06AAA6908FA00F11143A96100EB2B
:10295000800109EB8100211DFFF700FBE06A296877
:10296000C96A8842E2D3C5F82480DFE70CB1FFF7DB
:10297000D9F92C6A44B14646FFF7D0FE00B16E6229
:10298000641EF9D100202862686A38B1084901271D
:1029900038070860BFF34F8FBFF36F8FFFF70AFB55
:1029A0003846BDE8F0870000200000201004002019
:1029B00004ED00E044616E67206E68617020544150
:1029C000534B20310D436875616E20626920677535
:1029D00069206475206C6965750D000000000000B9
:1029E0000000000000000000486F616E2074686104
:1029F0006E6820677569205461736B20310D5468CF
:102A00006F6174206B686F69205441534B20310D06
:102A10000000000000000000000000004C6F692072
:102A20006B6869206775692071756575650D0000B3
:102A30000000000000000000000000000000000096
:102A40000000000000000000000000000000000086
:102A500044616E67206E686170205441534B203290
:102A60000D436875616E2062692067756920647521
:102A7000206C6965750D000000000000000000007A
:102A800000000000486F616E207468616E68206706
:102A90007569205461736B20320D54686F61742026
:102AA0006B686F69205441534B20320D00000000C9
:102AB00000000000000000004C6F69206B68692076
:102AC0006775692071756575650D0000000000006F
:102AD00000000000000000000000000000000000F6
:102AE00000000000000000000000000044616E676C
:102AF000206E686170205441534B20330D4368753C
:102B0000616E206269206E68616E206475206C6958
:102B100065750D00000000000000000000000000CE
:102B20004E68616E207175657565207468616E68A8
:102B300020636F6E670D20000000000000000000A1
:102B40000000000000000000000000000000000085
:102B50000000000000000000000000000000000075
:102B60000000000000000000000000000000000065
:102B70000000000000000000000000000000000055
:102B8000000000000000000000000000010203043B
:102B9000060708090000000001020304BC2B00081E
:102BA0000000002080000000481600083C2C0008AF
:102BB00080000020D0130000581600080100020019
:102BC0000000000000000000000000000100000004
:102BD00010000000000000000024F40000000000CD
:102BE00000000000000000000000000000000000E5
:102BF00000000000000000000000000000000000D5
:102C000000000000000000000000000000000000C4
:102C100000000000000000000000000000000000B4
:102C200000000000000000000000000000000000A4
:0C2C300000000000AAAAAAAA00000000F0
:04000005080000ED02
:00000001FF
